:020000040800F2
:100000004004002001010008610700080D060008F7
:1000100075060008610300084F1B0008000000007F
:10002000000000000000000000000000CD0E0008ED
:100030006503000800000000B50D00083D11000830
:100040001B0100081B0100081B0100081B01000820
:100050001B0100081B0100081B0100081B01000810
:100060001B0100081B0100081B0100081B01000800
:100070001B0100081B0100081B0100081B010008F0
:100080001B0100081B0100081B0100081B010008E0
:100090001B0100081B0100081B0100081B010008D0
:1000A0001B0100081B0100081B0100081B010008C0
:1000B0001B0100081B010008E11300081B010008D8
:1000C0001B0100081B0100081B0100081B010008A0
:1000D0001B0100081B010008A91800083D190008B1
:1000E0001B0100081B0100081B010008DFF80CD0F1
:1000F00000F024F900480047D91B00084004002004
:100100000648804706480047FEE7FEE7FEE7FEE7B1
:10011000FEE7FEE7FEE7FEE7FEE7FEE74111000827
:10012000ED000008F0B480EA0102D40F4200B2EB07
:10013000410F02D20246084611464A0042D0C30D82
:10014000DDB2C1F3C752AD1A202D35DAC1F3160165
:1001500041F4000204B15242C5F1200602FA06F150
:100160002A411044B3EBD05F23D0C4B1012DA0EBE2
:10017000C35009DCF0BC4FF0004202EAC352DBB2CC
:1001800000F5000000F0ABB8400000F1807000EB1B
:10019000C350A0F1807040EAD170490009E04908DD
:1001A00041EAC071A0EBC35000F50000400800EB2D
:1001B000C350F0BC00F08AB86142012202EB410159
:1001C000001BF6E7F0BC704781F00041AAE780F021
:1001D0000040A7E780EA010210B502F000434000AA
:1001E00022D04A001FD0010E01EB1261C0F356006D
:1001F000C2F3560240F4000042F40002A0FB0220C9
:1002000000047F39140400D0401C50EA124001D48D
:100210004000491EC2B20C0604EBD010401C40083E
:10022000802A02D003E0002010BD20F00100002948
:1002300000DA0020184310BDC10F80EAE0700844C6
:10024000CA079623002100F04AB800F0004220F0CF
:100250000040C10DC0F3160040F400007F2901DA10
:1002600000207047962903DCC1F19601C84001E0E7
:1002700096398840002AF4D04042704720F0004070
:10028000C10DC0F3160040F400007F2901DA002000
:100290007047962903DCC1F19601C8407047963932
:1002A00088407047002801DBC0F10040002901DBD5
:1002B000C1F1004181427047002801DBC0F10040DC
:1002C000002901DBC1F10041884270470029A8BF25
:1002D0007047401C490008BF20F00100704710B46F
:1002E000B0FA80FC00FA0CF050EA010404BF10BC24
:1002F000704749B1CCF1200421FA04F411FA0CF151
:1003000018BF012121430843A3EB0C01CB1D4FEA89
:1003100000614FEA102042BF002010BC704700EB84
:10032000C35010440029A4BF10BC7047401C4900B2
:1003300008BF20F0010010BC70470000064C074DBC
:1003400006E0E06840F0010394E8070098471034A5
:10035000AC42F6D3FFF7CEFE402200086022000830
:1003600000BFFEE77047000010B5054801F0AFF888
:1003700004B20021024801F0D9F9204610BD000066
:10038000002C014000B587B00121C80200F024FD17
:100390000121042000F020FD48208DF81B004FF4BF
:1003A0004070ADF8180003208DF81A0006A91C480B
:1003B00000F098F80020ADF81200ADF80E004FF6EE
:1003C000FF70ADF810000020ADF80C008DF814009F
:1003D00003A9144801F0D8F9684601F0E3F80020B9
:1003E000ADF800000F20ADF8080069460D4801F097
:1003F00083F80420ADF800000F20ADF8080069462E
:10040000084801F079F8002302220321054801F091
:100410003DF80121034801F02DF807B000BD0000B0
:1004200000080140002C014010B5054801F04FF8CC
:1004300004B20021024801F079F9204610BD000005
:100440000004004000B587B00121022000F0B4FC98
:100450000121042000F0C0FC48208DF81B00C020C2
:10046000ADF8180003208DF81A0006A91B4800F00B
:1004700039F80020ADF81200ADF80E004FF6FF700D
:10048000ADF810000020ADF80C008DF8140003A9A1
:10049000134801F079F9684601F084F80020ADF8BE
:1004A00000000F20ADF8080069460D4801F024F85F
:1004B0000420ADF800000F20ADF808006946084898
:1004C00001F01AF8022300220321054800F0DEFFA4
:1004D0000121034800F0CEFF07B000BD0008014035
:1004E000000400402DE9F0410246002500260020CE
:1004F00000230024002791F803C00CF00F0591F8A9
:1005000003C00CF0100CBCF1000F03D091F802C036
:100510004CEA050591F800C0BCF1000F31D0146819
:1005200000202BE04FF0010C0CFA00F3B1F800C0F2
:100530000CEA03069E4220D183004FF00F0C0CFA08
:1005400003F7BC4305FA03FC4CEA040491F803C02A
:10055000BCF1280F06D14FF0010C0CFA00FCC2F8D8
:1005600014C00AE091F803C0BCF1480F05D14FF068
:10057000010C0CFA00FCC2F810C0401C0828D1D3B2
:100580001460B1F800C0BCF1FF0F34DD54680020E6
:100590002EE000F1080C4FF0010808FA0CF3B1F856
:1005A00000C00CEA03069E4221D183004FF00F0CDD
:1005B0000CFA03F7BC4305FA03FC4CEA040491F877
:1005C00003C0BCF1280F05D100F1080C08FA0CF8A3
:1005D000C2F8148091F803C0BCF1480F07D100F1B4
:1005E000080C4FF0010808FA0CF8C2F81080401C03
:1005F0000828CED35460BDE8F081416170470161A5
:1006000070470AB1016100E04161704700BFFEE739
:1006100010B50521014800F00DFD10BD004400405B
:1006200008B50121082000F0D7FB0121042000F0CB
:10063000D3FB48208DF803004FF4A040ADF8000034
:1006400003208DF8020069460848FFF74BFF482059
:100650008DF803004FF40060ADF8000003208DF822
:10066000020069460248FFF73DFF08BD000C01404B
:100670000008014000BFFEE708B50121102000F08E
:10068000ABFB10208DF803004FF44040ADF80000A4
:1006900003208DF8020069460248FFF723FF00F0AF
:1006A000E3FA08BD0010014010B50446002C0DDB34
:1006B0004FF400410D48FFF7A2FF4FF480410B4873
:1006C000FFF79BFFA0B200F019FB0DE04FF40041D3
:1006D0000648FFF792FF4FF480410448FFF78FFF71
:1006E000614288B200F00AFB10BD0000001001401A
:1006F00008B50121042000F06FFB10208DF80300E5
:100700003020ADF8000003208DF802006946034850
:10071000FFF7E8FE00F0FAFA08BD0000000801400B
:1007200010B50446002C0BDB20210C48FFF767FFB7
:1007300010210A48FFF761FFA0B200F033FB0BE085
:1007400020210648FFF759FF10210448FFF757FF03
:10075000614288B200F026FB10BD00000008014095
:100760007047000070B5002100230F22C47804B345
:10077000154C246804F4E064C4F5E064210AC1F176
:100780000403CA40447804FA03F1847814402143F6
:1007900009010E4C0678A155047804F01F050124C8
:1007A000AC4005786D11AD0005F1E025C5F80041BC
:1007B00009E0047804F01F050124AC40044D0678DC
:1007C000761145F8264070BD0CED00E000E400E035
:1007D00080E100E002490143024A116070470000D5
:1007E0000000FA050CED00E070B500240EE00021D9
:1007F000204600F0F4F8002504E0002000F080F925
:10080000681CC5B2802DF8DB601CC4B2082CEEDB7E
:1008100070BD000008B50121082000F0DDFA1420A9
:100820008DF8030003208DF802004FF48070ADF8BE
:10083000000069460A48FFF755FE4FF40070ADF816
:10084000000069460648FFF74DFE012211020448E8
:10085000FFF7D7FE012251020148FFF7D2FE08BD83
:10086000000C014070B50546002419E080202041AD
:10087000284008B1012000E0002002464FF400713A
:100880000E48FFF7BEFE012211020C48FFF7B9FE29
:1008900000224FF480710948FFF7B3FE601CC4B218
:1008A000082CE3DB012211020448FFF7AAFE002214
:1008B0004FF480710148FFF7A4FE70BD000C0140A9
:1008C00010B5012251020A48FFF79BFE01221102D6
:1008D0000748FFF796FE00224FF400710448FFF727
:1008E00090FE00224FF480710148FFF78AFE10BD90
:1008F000000C014010B500224FF400710648FFF7CC
:1009000080FE012211020448FFF77BFE0122510202
:100910000148FFF776FE10BD000C014070B50024C1
:1009200006E0002500E06D1CB5F57A7FFBD3641C62
:10093000B4F57A7FF5D3FFF76DFFAE2000F0D0F865
:10094000D52000F0CDF8802000F0CAF8A82000F0F3
:10095000C7F83F2000F0C4F8D32000F0C1F8002011
:1009600000F0BEF8402000F0BBF8A12000F0B8F87D
:10097000C82000F0B5F8DA2000F0B2F8122000F03C
:10098000AFF8812000F0ACF8CF2000F0A9F8D92012
:1009900000F0A6F8F12000F0A3F8DB2000F0A0F8AA
:1009A000302000F09DF8A42000F09AF8A62000F076
:1009B00097F88D2000F094F8142000F091F8AF2003
:1009C00000F08EF8FFF710FF70BD10B50246012051
:1009D00000E050430B1EA1F10101FAD110BD70B52A
:1009E00005460C4645F0B00000F07AF8102141EAC7
:1009F000141000F075F804F00F0000F071F870BDED
:100A00002DE9F04105460E461746721ED206110E1C
:100A10006A1E5206100EFFF7E2FF002409E0A7F15C
:100A20002001134A02EB0111085D00F069F8601C17
:100A3000C4B2082CF3DB721ED206110E6A1E01230B
:100A400003EB4202D0B2FFF7CAFF00240BE0A7F18C
:100A50002001074A02EB011204F10801505C00F08A
:100A60004FF8601CC4B2082CF1DBBDE8F081000037
:100A7000501C00082DE9F04780460E4617461D46DB
:100A8000002415E0281B411E0A20FFF79EFFB7FB3C
:100A9000F0F00A21B0FBF1F201FB120000F1300985
:100AA0003019C1B24A464046FFF7AAFF601CC4B2E3
:100AB000AC42E7DBBDE8F0872DE9F04107460E4682
:100AC0001546002407E02A5D3019C1B23846FFF709
:100AD00097FF601CC4B2285D0028F4D1BDE8F08106
:100AE00010B50446FFF7ECFE7820FFF7BBFE0020B0
:100AF000FFF7B8FE2046FFF7B5FEFFF7FBFE10BD7F
:100B000010B50446FFF7DCFE7820FFF7ABFE40206F
:100B1000FFF7A8FE2046FFF7A5FEFFF7EBFE10BD8E
:100B20002DE9FE4F05460024A046002685F0004929
:100B3000FFF71AFC8346FFF77FFB8246A04651462B
:100B40004846FFF741FB044621463046FFF7EAFAE4
:100B5000064641462046FFF737FB019014480168DE
:100B60000198FFF737FB8346314612480068FFF7CC
:100B700031FB2146019010480068FFF72BFB0090E5
:100B80000199FFF7CFFA59460290FFF7CBFA0746D3
:100B90000A493846FFF790FB00D2084F084938460B
:100BA000FFF780FB00D2064F87F00040BDE8FE8FC4
:100BB0001C00002018000020140000200000C84283
:100BC0000000C8C22DE9FE4F05460024002700267C
:100BD000A846FFF729FC8346FFF72EFB81462746F0
:100BE00049464046FFF7F0FA044621463046FFF7F3
:100BF00099FA064639462046FFF7E6FA019015486D
:100C000001680198FFF7E6FA83463146124800680A
:100C1000FFF7E0FA2146019010480068FFF7DAFA82
:100C200000900199FFF77EFA59460290FFF77AFA91
:100C300082460B495046FFF73FFB01D2DFF820A068
:100C400008495046FFF72EFB01D2DFF818A05046A6
:100C5000BDE8FE8F1C0000201800002014000020BA
:100C60000000C8420000C8C200B589B00121084692
:100C700000F0A2F80121042000F0AEF818208DF851
:100C800023000320ADF820008DF8220008A91A489F
:100C9000FFF728FC4FF0804000F096FC0020ADF8F4
:100CA0001A00ADF816006320ADF8180040F2CF200E
:100CB000ADF8140000208DF81C0005A94FF080400D
:100CC00000F062FD01A800F023FD6020ADF80400F3
:100CD0000020ADF80C000120ADF806000020ADF8B2
:100CE0000A0001A94FF0804000F074FC0121880740
:100CF00000F0C0FB09B000BD0008014010B504467B
:100D000021464FF0804000F00DFD10BD00B589B0C8
:100D10000121084600F050F80121042000F05CF8A1
:100D200018208DF823000220ADF8200003208DF854
:100D3000220008A91A48FFF7D5FB4FF0804000F0C9
:100D400043FC0020ADF81A00ADF816006320ADF8A2
:100D5000180040F2CF20ADF8140000208DF81C00E0
:100D600005A94FF0804000F00FFD01A800F0D0FC75
:100D70006020ADF804000020ADF80C000120ADF8B3
:100D800006000020ADF80A0001A94FF0804000F0F5
:100D90006DFC0121880700F06DFB09B000BD00006B
:100DA0000008014010B5044621464FF0804000F095
:100DB000BBFC10BD7047000029B1064AD26902434E
:100DC000044BDA6104E0034AD2698243014BDA61E1
:100DD000704700000010024029B1064A92690243A0
:100DE000044B9A6104E0034A92698243014B9A6181
:100DF000704700000010024030B50021002200249E
:100E000000232D4D6D6805F00C0121B1042905D09A
:100E1000082923D105E0294D056022E0274D056012
:100E20001FE0254D6D6805F47012234D6D6805F4C3
:100E30008034022505EB92421CB9214D55430560D3
:100E40000BE01D4D6D6805F400351DB11C4D55437B
:100E5000056002E0194D5543056002E0174D05603D
:100E600000BF00BF144D6D6805F0F0010909154D74
:100E70006B5C0568DD4045600F4D6D6805F4E06111
:100E8000090A104D6B5C4568DD4085600A4D6D6850
:100E900005F46051C90A0B4D6B5C4568DD40C560C7
:100EA000054D6D6805F44041890B074D6B5CC568C5
:100EB000B5FBF3F5056130BD0010024000127A0069
:100EC00000093D00000000201000002070470000D5
:100ED00000B58DB001218804FFF76EFF01210820C5
:100EE000FFF77AFF18208DF833004FF48060ADF8DB
:100EF000300003208DF832000CA94A48FFF7F2FABF
:100F000048208DF833004FF40060ADF83000032026
:100F10008DF832000CA94348FFF7E4FA4FF416505D
:100F200008900020ADF82C000C20ADF82A0000201D
:100F3000ADF82800ADF82600ADF8240008A93A481D
:100F400000F090FD012240F22551374800F064FD89
:100F50004FF4A060FFF73EFC27208DF81C00012015
:100F60008DF81F008DF81D008DF81E0007A8FFF7F3
:100F7000F9FB01212C4800F00CFD01214804FFF78A
:100F80001BFF01210420FFF727FF18208DF81B000D
:100F90000420ADF8180003208DF81A0006A9234894
:100FA000FFF7A0FA48208DF81B000820ADF81800C4
:100FB00003208DF81A0006A91C48FFF793FA4FF496
:100FC000E13002900020ADF814000C20ADF81200C2
:100FD0000020ADF81000ADF80E00ADF80C0002A92D
:100FE000134800F03FFD012240F22551104800F067
:100FF00013FD4FF4A060FFF7EDFB26208DF80400F1
:1010000001208DF8070000208DF805008DF80600FE
:1010100001A8FFF7A7FB0121054800F0BAFC0DB0BD
:1010200000BD0000000C01400048004000080140E5
:101030000044004070B504460D462946204600F0A5
:1010400082FD00BF8021204600F0AFFC0028F9D0CF
:1010500070BD10B500F002F810BD00000CB5002006
:10106000019000903348006840F4803031490860B6
:1010700000BF3048006800F4003000900198401C28
:101080000190009818B90198B0F5A06FF1D12948E6
:10109000006800F4003010B10120009001E0002051
:1010A00000900098012843D12348006840F01000C8
:1010B000214908600846006820F0030008600846DF
:1010C000006840F0020008601A484068194948600A
:1010D0000846406848600846406840F480604860C0
:1010E0000846406820F47C1048600846406840F498
:1010F000E81048600846006840F08070086000BF53
:101100000C48006800F000700028F9D009484068D9
:1011100020F00300074948600846406840F002009C
:10112000486000BF0348406800F00C000828F9D16F
:101130000CBD00000010024000200240704700007B
:1011400010B51348006840F00100114908600846D6
:101150004068104908400E494860084600680E493A
:1011600008400B4908600846006820F480200860A9
:101170000846406820F4FE0048604FF41F00886075
:10118000FFF767FF4FF000600449086010BD0000E2
:10119000001002400000FFF8FFFFF6FE08ED00E03F
:1011A000F0B50C46154600220021068C4FF6FE775E
:1011B0003E400684028B018C4FF60C7632407E1C3A
:1011C00006EA03162E433243104EB0420ED0104EA4
:1011D000B0420BD0B0F1804F08D00E4EB04205D0D7
:1011E0000D4EB04202D00D4EB04206D14FF6FD7604
:1011F000314044F00106314305E04FF6F5763140C9
:1012000044F00106314302830184F0BD002C01400B
:10121000003401400004004000080040000C004081
:10122000F0B50C461546002200210026078C4FF62B
:10123000EF7C07EA0C070784028B018C4FF6FF77DF
:1012400007EA041640F6FF473A404FF6FF7707EAF1
:1012500003373A434FF6FF7707EA05273A43114F22
:10126000B8420ED0104FB8420BD0B0F1804F08D02A
:101270000E4FB84205D00E4FB84202D00D4FB842C3
:1012800006D14FF6DF77394046F01007394305E0C5
:101290004FF65F77394044F01007394302830184E9
:1012A000F0BD0000002C014000340140000400406B
:1012B00000080040000C0040F0B50C461546002226
:1012C00000210026078C4FF6FF6C07EA0C07078405
:1012D000828B018C4FF6FF7707EA04264FF60C77D6
:1012E0003A404FF6FF7707EA03172F433A43114F6F
:1012F000B8420ED0104FB8420BD0B0F1804F08D09A
:101300000E4FB84205D00E4FB84202D00D4FB84232
:1013100006D14FF6FF57394046F48077394305E050
:101320004FF2FF57394044F4807739438283018478
:10133000F0BD0000002C01400034014000040040DA
:1013400000080040000C0040F0B50C461546002295
:1013500000210026078C4EF6FF7C07EA0C07078465
:10136000828B018C4FF6FF7707EA043640F6FF4781
:101370003A404FF6FF7707EA05273A434FF6FF77E3
:1013800007EA03373A43114FB8420ED0104FB84224
:101390000BD0B0F1804F08D00E4FB84205D00E4FA1
:1013A000B84202D00D4FB84206D14DF6FF77394012
:1013B00046F48057394305E047F6FF57394044F477
:1013C0008057394382830184F0BD0000002C014026
:1013D000003401400004004000080040000C0040C0
:1013E0002DE9F04101211D4800F074F8012832D1A7
:1013F0001B480088401C1A49088008460088282895
:1014000025DB00200880002211461648006800F005
:10141000AFFB044604F11400FEF70EFF8046FFF711
:101420007FFB0746FEF711FF0546C4F11400FEF7E7
:1014300003FF8046FFF7C6FB0746FEF706FF06469A
:1014400068B2FFF731F970B2FFF76AF900BF012106
:10145000024800F00CF8BDE8F081000000080040F0
:101460002C00002028000020CA4302827047CA4393
:101470000282704721B1028842F00102028004E03A
:1014800002884FF6FE731A4002807047F0B50C4692
:1014900015461E460021002200230189028B038C81
:1014A0004FF6F877394021434FF6FC473A4040F277
:1014B00001173A434FF6DD773B404FF6FF7707EAD7
:1014C00006172F433B43018102830384F0BD01468D
:1014D000888C704730B50246002000230024158A0E
:1014E00005EA0103958905EA010413B10CB1012055
:1014F00000E0002030BD000070B505460C462448D1
:1015000085420ED0234885420BD0B5F1804F08D0DC
:101510002148854205D02148854202D02048854295
:1015200000D100E000BF208850B92389A2886188DB
:101530002846FFF735FEE188284600F0F9F825E057
:10154000208804280AD12389A28861882846FFF7C9
:1015500067FEE188284600F0F4F817E020880828A4
:101560000AD12389A28861882846FFF7A5FEE18871
:10157000284600F0F3F809E02389A288618828460C
:10158000FFF7E2FEE188284600F0F1F870BD0000A8
:10159000002C0140003401400004004000080040DD
:1015A000000C004000210180418001218180002148
:1015B000C180018170471AB183890B43838102E0A6
:1015C00083898B438381704701894FF6F8721140FC
:1015D0000181704770B5002400220023058C4FF66E
:1015E000FE7635400584028C8388048B4FF68F7518
:1015F0002C40B51E2C400D882C43751E2A400D89A9
:101600002A434D882A43144DA8420BD0134DA842BB
:1016100008D0134DA84205D0124DA84202D0124D59
:10162000A84213D14FF6F7752A404D892A434FF649
:10163000FB752A408D882A434FF6FF652B404FF6F5
:10164000FF552B408D892B43CD892B438380048309
:10165000CD888586028470BD002C01400034014095
:1016600000400140004401400048014070B50024A2
:1016700000220023058C4FF6EF7635400584028C5E
:101680008388048B48F6FF752C404FF6FF452C40AD
:101690000D884FF6FF7606EA05252C434FF6DF75D9
:1016A0002A400D8906EA05152A434D8806EA0515E4
:1016B0002A43154DA84202D0144DA8421DD14FF621
:1016C0007F752A404D894FF6FF7606EA05152A43B5
:1016D0004FF6BF752A408D8806EA05152A434FF656
:1016E000FF352B404FF2FF752B408D8906EA8505AB
:1016F0002B43CD8906EA85052B4383800483CD885F
:101700000587028470BD0000002C014000340140B8
:101710000021018041808180C180018141818181DE
:10172000C181704781867047018770478184704707
:10173000028B4FF6F3731A400283028B0A43028333
:101740007047028B4FF2FF331A400283028B4FF631
:10175000FF7303EA01231A4302837047828B4FF61B
:10176000F3731A408283828B0A4382837047828B91
:101770004FF2FF331A408283828B4FF6FF7303EAE6
:1017800001231A4382837047002202881D4B98422E
:101790000ED01D4B98420BD0B0F1804F08D01B4BA0
:1017A000984205D01A4B984202D01A4B984204D165
:1017B0004FF68F731A404B881A43174B984207D045
:1017C000164B984204D04FF6FF431A40CB881A4379
:1017D00002808B8883850B8803850A4B98420BD047
:1017E000094B984208D00E4B984205D00D4B9842B9
:1017F00002D00D4B984201D10B7A038601238382DC
:1018000070470000002C01400034014000040040FB
:1018100000080040000C0040001000400014004090
:101820000040014000440140004801401FB5012133
:101830000420FFF7C1FA1B48FFF7C6FE0020ADF8F1
:101840000A00ADF8060040F2E730ADF80800472086
:10185000ADF8040000208DF80C0001A91148FFF735
:1018600093FF01210F48FFF7FFFD012211460D48AC
:10187000FFF7A1FE4FF4A060FEF7ACFF1E208DF82D
:10188000000001208DF8030002208DF801000120E6
:101890008DF802006846FEF765FF01210148FFF759
:1018A000E9FD1FBD0008004010B540F225511E485B
:1018B00000F088F8012836D11B4800F03FF9C4B287
:1018C0001A48007840B9492C27D1012017490870DF
:1018D00000201749087020E014480078012810D132
:1018E000144813490978445411480078401C1049A1
:1018F00008700846007810280FDB02200B4908709A
:101900000BE00A480078022807D14D2C05D10020B1
:101910000649087001200849087040F22551024824
:1019200000F028F800BF10BD004400402300002054
:1019300024000020300000202200002010B540F2DA
:101940002551094800F03EF801280CD1064800F066
:10195000F5F80649087001200549087040F2255144
:10196000014800F007F810BD0048004020000020AA
:101970002100002010B50022002340F66A14A14285
:1019800000D100BF0A1201249440A3B2DC430480BA
:1019900010BD21B1828942F40052828104E0828923
:1019A0004DF6FF731A408281704702460020B1F560
:1019B000007F00D100BF13880B400BB1012000E075
:1019C0000020704770B50246002400230025002047
:1019D00040F66A16B14200D100BFC1F3421501F0D2
:1019E0001F03012606FA03F3012D02D19689334025
:1019F00006E0022D02D1168A334001E0968A334078
:101A00000C12012606FA04F41688344013B10CB106
:101A1000012000E0002070BDF0B503460024002640
:101A20000025002040F66A17B94200D100BF1846D1
:101A3000C1F3421401F01F06012707FA06F5012C35
:101A400001D10C3004E0022C01D1103000E0143040
:101A50001AB107682F43076002E00768AF430760C9
:101A6000F0BD00002DE9F04786B005460E46002483
:101A7000A24600BFA1460027B08900B100BF2F4693
:101A80002C8A4CF6FF700440F08804432C82AC8909
:101A90004EF6F3100440B088318908437189084339
:101AA0000443AC81AC8A4FF6FF400440B089044344
:101AB000AC8201A8FFF7A0F91F48874202D1DDF8E8
:101AC00010A001E0DDF80CA0A88900F4004040B1AE
:101AD0000AEBCA0000EB0A1031684900B0FBF1F8CC
:101AE00007E00AEBCA0000EB0A1031688900B0FB7E
:101AF000F1F86420B8FBF0F004012009642101FB37
:101B00001089A88900F4004040B1322000EBC900E0
:101B1000B0FBF1F000F00700044308E0322000EBD6
:101B200009106421B0FBF1F000F00F0004432C8198
:101B300006B0BDE8F0870000003801400146888803
:101B4000C0F308007047C1F308028280704700BFED
:101B5000FEE702E008C8121F08C1002AFAD1704748
:101B60007047002001E001C1121F002AFBD170471D
:101B70002DE9FC5F06460F461446DFF850804FF013
:101B8000000913493046FEF797FB05D2114930464C
:101B9000FEF71DFB80F0004621463046FEF714FBA1
:101BA000834639464846FEF715FB594601904046A4
:101BB000FEF710FB00900199FEF7B4FA8246FEF79B
:101BC00044FB05462846BDE8FC9F00000000A040FD
:101BD000000034430000B443FEF7A0FEFEF74CFDC6
:101BE000FEF786FDFFF722FEFEF7CCFBFEF72AFC90
:101BF000FFF76EF9FEF714FD10A201210846FEF76B
:101C00005BFF1AE0FEF704FD0E49497B0D4A927B0B
:101C100041EA0220FEF710FB04460B49FEF7DAFA10
:101C20000A49086008460068FEF728FB04460323BB
:101C3000224605210120FEF71DFFE3E75961773AAF
:101C400000000000300000200000B43B280000200D
:101C50000000000000000000000000000000000084
:101C6000000000F800000000000000333000000019
:101C700000100C06100C0600000000000000000020
:101C800040C07840C0784000043F04043F04040092
:101C9000007088FC08300000001820FF211E0000A2
:101CA000F008F000E018000000211C031E211E00B7
:101CB00000F00888700000001E212324192721103D
:101CC00010160E00000000000000000000000000E0
:101CD000000000E018040200000000071820400087
:101CE00000020418E0000000004020180700000077
:101CF000404080F0804040000202010F01020200DB
:101D0000000000F0000000000101011F01010100BE
:101D1000000000000000000080B070000000000023
:101D200000000000000000000001010101010101AC
:101D30000000000000000000003030000000000043
:101D40000000000080601804006018060100000018
:101D500000E010080810E000000F102020100F0015
:101D6000001010F8000000000020203F202000009C
:101D700000700808088870000030282422213000F4
:101D800000300888884830000018202020110E00FC
:101D90000000C02010F8000000070424243F2400A5
:101DA00000F80888880808000019212020110E007A
:101DB00000E0108888180000000F112020110E008C
:101DC00000380808C83808000000003F0000000084
:101DD0000070880808887000001C222121221C0045
:101DE00000E010080810E0000000312222110F006E
:101DF000000000C0C0000000000000303000000003
:101E00000000008000000000000080600000000072
:101E1000000080402010080000010204081020008B
:101E200040404040404040000404040404040400D6
:101E3000000810204080000000201008040201006B
:101E4000007048080808F00000000030360100006B
:101E5000C030C828E810E0000718272423140B001E
:101E60000000C038E0000000203C23020227382098
:101E700008F8888888700000203F202020110E007C
:101E8000C030080808083800071820202010080073
:101E900008F808080810E000203F202020100F005C
:101EA00008F88888E8081000203F20202320180028
:101EB00008F88888E8081000203F20000300000090
:101EC000C03008080838000007182020221E020031
:101ED00008F808000008F808203F210101213F20F0
:101EE000000808F8080800000020203F202000001B
:101EF00000000808F8080800C08080807F0000000B
:101F000008F888C028180800203F20012638200043
:101F100008F8080000000000203F202020203000AA
:101F200008F8F800F8F80800203F003F003F2000C4
:101F300008F830C00008F808203F200007183F00CC
:101F4000E01008080810E0000F10202020100F00FB
:101F500008F808080808F000203F210101010000EE
:101F6000E01008080810E0000F18242438504F0033
:101F700008F8888888887000203F2000030C3020F3
:101F800000708808080838000038202121221C0031
:101F9000180808F8080818000000203F200000007A
:101FA00008F808000008F808001F202020201F0063
:101FB0000878880000C83808000007380E010000C3
:101FC000F80800F80008F800033C0700073C03008D
:101FD000081868808068180820302C03032C3020F3
:101FE0000838C800C83808000000203F2000000062
:101FF00010080808C83808002038262120201800BA
:10200000000000FE020202000000007F404040008D
:10201000000C30C000000000000000010638C000C5
:1020200000020202FE000000004040407F0000006D
:102030000000040202020400000000000000000092
:102040000000000000000000808080808080808090
:102050000002020400000000000000000000000078
:1020600000008080808000000019242222223F206E
:1020700008F8008080000000003F112020110E00B1
:102080000000008080800000000E11202020110040
:10209000000000808088F800000E112020103F20F2
:1020A0000000808080800000001F22222222130076
:1020B000008080F0888888180020203F20200000C1
:1020C0000000808080808000006B94949493600076
:1020D00008F8008080800000203F210000203F2081
:1020E00000809898000000000020203F2020000081
:1020F000000000809898000000C08080807F000071
:1021000008F8000080808000203F24022D3020004D
:10211000000808F8000000000020203F20200000F8
:102120008080808080808000203F20003F20003F12
:102130008080008080800000203F210000203F2020
:102140000000808080800000001F202020201F00D1
:10215000808000808000000080FFA12020110E0000
:102160000000008080808000000E112020A0FF80F1
:10217000808080008080800020203F21200001009E
:1021800000008080808080000033242424241900F3
:10219000008080E0808000000000001F2020000000
:1021A0008080000000808000001F202020103F2041
:1021B000808080000080808000010E3008060100D1
:1021C00080800080008080800F300C030C300F0076
:1021D00000808000808080000020312E0E312000A1
:1021E000808080000080808080818E7018060100D1
:1021F00000808080808080000021302C22213000EF
:1022000000000000807C020200000000003F40400F
:1022100000000000FF00000000000000FF000000C0
:102220000002027C800000000040403F00000000EF
:10223000000601010202040400000000000000008A
:10224000602200080000002030000000521B00083F
:10225000902200083000002010040000621B0008DB
:10226000000000000102030401020304060708093C
:10227000020406089A99993ECDCC4C3E000000001D
:10228000000000000000000000000000000000004E
:04000005080000ED02
:00000001FF
